:060000000A128A110C280F
:10000800FE00030EF4000A08F5000A128A115C28A3
:100018000A128A110F28F70183010A128A119928F6
:1000280001308316031788008901013083160313F2
:100038008500831203138501831603138701831236
:10004800031387018316031388018312031388019E
:100058000730831603138600831203138601831661
:10006800031381131514951415158B1516141615ED
:100078000B100F088F3960388F000F149F131F1251
:100088009F12831203131F083F3940389F00C33063
:100098009F051F141030F600F60B502800008B1730
:1000A8000B17831603130C17831203130C13080082
:1000B800831203130C1F6128622869281E08F200A6
:1000C8007208F700770887000C130B1C6C286D2842
:1000D800922806187028712884287708F200720878
:1000E800F00000300A128A11BA200A128A11003070
:1000F8000A128A11D1200A128A1183120313880066
:1001080006198728882891288230F300DD30F2000C
:10011800F20B8C28F30B8C2891280B1075088A0099
:10012800740E8300FE0E7E0E09000A128A11142036
:100138000A128A11831203139F14831203139F1840
:10014800A628A728B1280F3083120313A000A00BFC
:10015800AB28AE28831203139F148618B428B52839
:10016800A1286300A1280A128A110C28F10071083D
:10017800831203178D0070088C00831603178C13E5
:100188000C158B130B1355308D00AA308D008C1471
:100198000C110B108B170B170800F0007008831256
:1001A80003178D00831603178C130C14831203177F
:0401B8000C08080027
:08400000FF3FFF3FFF3FFF3FC0
:04400E00D420FF3F7C
:00000001FF
