:060000000A128A110C280F
:10000800FE00030EF0000A08F1000A128A115428B3
:100018000A128A110F2883010A128A116E280130E8
:10002800831603178800890101308316031385009E
:1000380083120313850183160313870183120313A5
:100048008701831603130F088F3960388F000F1448
:10005800033086008312031386018316031381136A
:10006800151495148B15161496140B109F131F1244
:100078009F12831203131F083F3940389F00C33073
:100088009F051F141030F200F20B482800008B1750
:100098000B17831603130C17831203130C13080092
:1000A800831203130C1F59285A285D281E0887003D
:1000B8000C130B1C6028612867280618642865281B
:1000C800662863000B1071088A00700E8300FE0E0C
:1000D8007E0E09000A128A1113200A128A1183124D
:1000E80003139F149F1879287A2876281030F30074
:1000F800F30B7C280000831203139F1476280A123E
:040108008A110C2824
:08400000FF3FFF3FFF3FFF3FC0
:04400E00D420FF3F7C
:00000001FF
